:020000040800F2
:10000000A04E0020CD020008F9250008DB220008E0
:10001000532400082D1F00086B3700080000000063
:100020000000000000000000000000003502000891
:10003000851F0008000000007902000865330008F1
:10004000E7020008E7020008E7020008E7020008EC
:10005000E7020008E7020008E7020008E7020008DC
:10006000E7020008E7020008E7020008E7020008CC
:10007000E7020008E7020008E7020008E7020008BC
:10008000E7020008E7020008E7020008E7020008AC
:10009000E7020008E7020008E7020008E70200089C
:1000A000E7020008E7020008E7020008E70200088C
:1000B000E7020008E7020008E7020008E70200087C
:1000C000E7020008E7020008E7020008E70200086C
:1000D000E702000859350008E7020008E7020008B7
:1000E000891F0008E7020008E702000800F002F894
:1000F00000F090F80AA090E8000C82448344AAF132
:100100000107DA4501D100F085F8AFF2090EBAE82F
:100110000F0013F0010F18BFFB1A43F0010318473B
:100120006868000088680000103A24BF78C878C169
:10013000FAD8520724BF30C830C144BF04680C60ED
:10014000704700000023002400250026103A28BF35
:1001500078C1FBD8520728BF30C148BF0B60704739
:100160006E2900F0CB81702900F00D83662905F01F
:100170006387652905F06087672905F05D87612938
:1001800005F05C8703681B0A28BF41F080016929DC
:1001900000F07881642900F07581752900F0728182
:1001A0006F2900F09A82782900F0D982E92900F0BD
:1001B0003582E42900F03282F52900F02F82EF2900
:1001C00000F09782F82900F0D8820368DB0928BF85
:1001D00041F08001632901F00D80732901F0128044
:1001E000E32901F01D80F32901F0228000207047EF
:1001F0001FB501F073F804000020002105F006FF90
:10020000401C60600020002105F0EAFEE0601FBD98
:1002100010B510BD01F034F81146FFF7E9FF03F007
:10022000A3FB01F011F903B4FFF7F2FF03BC01F0E7
:1002300055F90000224B19680868B0E8F00F80F308
:100240000988BFF36F8F4FF0000080F311884EF0E4
:100250000D0E70470000000006480068006880F33B
:10026000088862B661B6BFF34F8FBFF36F8F00DFB0
:1002700000BF00BF08ED00E0EFF30980BFF36F8F10
:100280000F4B1A6820E9F00F106008B54FF05000CE
:1002900080F31188BFF34F8FBFF36F8F04F0FAFD27
:1002A0004FF0000080F31188BDE808401968086825
:1002B000B0E8F00F80F30988BFF36F8F704700BF7D
:1002C0004C000020EFF3058070470000094880478C
:1002D00009480047FEE7FEE7FEE7FEE7FEE7FEE728
:1002E000FEE7FEE7FEE7FEE704480549054A064B40
:1002F0007047000099330008ED000008A048002076
:10030000A04E0020A04A0020A04A00201CB50C46A8
:10031000064B7B4469460090204600F008F90446ED
:100320000020694600F016F920461CBD3F0200007F
:10033000032A40F2308010F0030C00F0158011F811
:10034000013BBCF1020F624498BF11F801CB00F8E9
:10035000013B38BF11F8013BA2F1040298BF00F83D
:1003600001CB38BF00F8013B11F0030300F0DA8243
:10037000083AC0F0088051F8043B083A51F804CB21
:10038000A0E80810F5E7121D5CBF51F8043B40F8E7
:10039000043BAFF30080D20724BF11F8013B11F8F2
:1003A00001CB48BF11F8012B24BF00F8013B00F836
:1003B00001CB48BF00F8012B70477047704770476A
:1003C00070B5044685690068C10601D5302600E095
:1003D0002026C00707D070BDD4E9012130469047E0
:1003E000206A401C20626D1EF6D570BD70B50446B3
:1003F00085690078C00707D170BDD4E901212020AC
:100400009047206A401C20626D1EF6D570BD0968B9
:100410004A0501D540B27047C905FCD500B2704706
:1004200009684A0501D5C0B27047C905FCD580B23C
:10043000704770B50C460546012A05D0287880061D
:1004400000D5EA69002302E0012305E05B1C93422A
:1004500002D2E05C0028F9D1A869E618C01AA861A8
:10046000286A184428622846FFF7AAFF04E0D5E965
:10047000012114F8010B9047B442F8D32846FFF746
:10048000B5FF70BD2DE9F0410646002410687529BE
:10049000314616A510D0FFF7BAFF002802DA404215
:1004A00013A507E031688A0701D512A502E04907C4
:1004B00004D511A5012401E0FFF7B2FF00210A22B3
:1004C00006F1240709E0B0FBF2FCB0FBF2F302FBFB
:1004D0001C00303078541846491C0028F3D12346BC
:1004E0002A463046BDE8F04100F093BA0000000013
:1004F0002D0000002B0000002000000011680268A1
:10050000006A530501D508700AE0D30501D50880BB
:1005100006E0130603D5C217C1E9000200E0086037
:100520000120704701694A1C02610878704700B5D4
:100530008FB0CDE901310021059105497944CDE91C
:1005400003101146684600F029F90FB000BD000005
:10055000E5FFFFFF0A6802F8010B0A607047000020
:100560002DE9FF5F15468A460446DFF8AC80F84463
:100570000027D8E900103E46CDE9001010E03AF817
:1005800016106A4602A800F057FE411C07D02178D9
:10059000890603D5E269391891420DD80744761CC3
:1005A0002078800602D5E069B84205DDAE42E6DB80
:1005B0003AF816000028E2D1A069C01BA0612046CD
:1005C000FFF7FEFED8E90010CDE90010002017E08B
:1005D0003AF818106A4602A800F02EFEB0F1FF3F6C
:1005E00081460BD000250DF1080B05E0D4E901216F
:1005F0001BF8050090476D1C4D45F7D308F101002D
:10060000B0428046E4DB206A384420622046FFF78F
:10061000EDFEBDE8FF9F00001A6300002DE9F041E8
:100620008046D21D22F007020025D2E90002F529FA
:1006300015A614D0011E72F1000106DA0023D0EBDA
:10064000030063EB020211A608E0D8F800108B0744
:1006500001D50FA602E0490701D50EA601251146D6
:10066000002408F1240704E000F08EF930323A55F6
:10067000641C50EA0102F7D12B463246214640461F
:10068000BDE8F04100F0C5B9000000002D000000F9
:100690002B0000002000000030B4002100F12404F1
:1006A00008E002F00705D208303542EA4372DB0861
:1006B0006554491C52EA0305F3D10468002310A2D3
:1006C000250707D5A40600D421B1C46901230DA2D2
:1006D000641EC46130BC00F09CB910B504462146CC
:1006E0001068FFF79DFE02462046BDE8104000233B
:1006F000D2E7D21D22F00701D1E90023CCE70000A8
:100700000000000030000000F0B40D46018809052B
:1007100002D5214C7C4402E01F4C7C440E34002165
:1007200000F1240608E002F00F071209E75D42EA33
:1007300003721B097754491C52EA0307F3D102786C
:100740000023120704D5702D06D009B102231134FD
:100750002246F0BC00F05DB901231034F8E770B513
:1007600004460D4621461068FFF75AFE0246294608
:100770002046BDE870400023C6E7D21D22F00703E3
:10078000D3E90023C0E70368126843F02003036045
:100790000823C3610023B7E77C6100002DE9F05F07
:1007A000894604464FF0000ADFF874B1FB44C0F8F4
:1007B00020A02046E1688847002874D0252806D06C
:1007C000D4E901219047206A401C2062F1E700260D
:1007D0005F462046E16888472028054607DB312D23
:1007E00005D2781910F8200C08B10643F1E7B007DC
:1007F00001D526F00406C4F81CA00027C4F818A0F0
:100800002A2D09D0284602F0C6FF38B304EB87082A
:10081000303DC8F8185019E059F8041B204604EB85
:1008200087029161E1688847012F054618D1E06988
:10083000002820DA26F020061DE0D8F8180000EB8A
:10084000800005EB40003038C8F818002046E16809
:100850008847054602F09FFF0028EED1012F0AD0FD
:100860002E2D08D12046E16888477F1C0546022FBF
:1008700046F02006C4DBA069002803DA404246F0B7
:100880000106A061F00701D026F010066C2D0BD0F8
:10089000682D09D04C2D39D06A2D35D0742D35D026
:1008A0007A2D33D016E038E0E1682F46204688479D
:1008B000B842054609D16C2F26D04FF48060E1681C
:1008C000064320468847054604E06C2F1AD04FF4B3
:1008D000807006430DB3A5F14100192802D82035D8
:1008E00046F400664A462946204626604E46FFF7F3
:1008F00037FC80B101280BD0F61D26F0070000F16F
:10090000080956E74020E4E78020D8E70020D6E732
:1009100006F104094DE7284652E7206ABDE8F09F3A
:100920000C61000010B5203AC0F00B80B1E81850FF
:10093000203AA0E81850B1E81850A0E81850BFF4C9
:10094000F5AF5FEA027C24BFB1E81850A0E8185068
:1009500044BF18C918C0BDE810405FEA827C24BFBC
:1009600051F8043B40F8043B08BF7047D20728BF4A
:1009700031F8023B48BF11F8012B28BF20F8023B99
:1009800048BF00F8012B704730B5B0F10A024FEABA
:10099000900E71F100034EEA817EB0EB0E0061EB28
:1009A00091014FEA101E4EEA017E10EB0E0041EB62
:1009B00011114FEA102E4EEA016E10EB0E0041EBC2
:1009C00011214FEA104E4EEA014E10EB0E0041EBA2
:1009D0001141401841F100014FEAD00040EA417056
:1009E0004FEAD10110EB80054FEA810444EA90748C
:1009F00044EB01046D1944EB0404521BA3414FF076
:100A0000000348BF0A3200D530BD401C41F100014F
:100A100030BD2DE9F0470D4699469246044600F157
:100A200024080168880604D5E06921F010012160DE
:100A300000E00120A84201DD471B00E00027A1697A
:100A40007A1902EB0900081AA0612078C00602D4C6
:100A50002046FFF7B5FC002608E0D4E901211AF88A
:100A600006009047206A401C761C20624E45F4DB4D
:100A70002078C0060AD52046FFF7A2FC06E0D4E99C
:100A8000012130209047206A401C2062381EA7F1C7
:100A90000107F4DC07E0D4E9012118F805009047CC
:100AA000206A401C2062281EA5F10105F3DC2046C7
:100AB000FFF79CFC2078000602D50220BDE8F087F5
:100AC0000120FBE770472DE9FF4F0C461E464FF013
:100AD000FF378BB0D2E90001DDF860800A908A46CA
:100AE000C1F30A5505B93D46002108464FF0000004
:100AF000BAF1000F00F4400005DA00EB80004FF47B
:100B0000400101EA50004FEA9059B9F1010F00DDB0
:100B1000B9460A9850EA4A000ED044F61050A5F2A1
:100B2000FF3545432F14B8F1000F1ED07542291E22
:100B30001EDDC9F100021CE0B8F1010F4FF000000A
:100B400001D0302103E0F24305E02154401CB042C3
:100B5000FBDB30460022002121540B99C1F80880AC
:100B6000C1E900200FB0BDE8F08FBD1B6D1CDEE7B2
:100B70004A4600DA694206A800F0F4FB06AB93E8A7
:100B8000070003AB83E8070050460A9900F0ADFC6C
:100B90008DE80700A0F500501F3800900398002D45
:100BA0000ADD42F21F014A460844002303A90390CC
:100BB000684600F016FF09E0A0F500504A461F38CD
:100BC000002303A90390684600F020FF8DE807008A
:100BD0000004000C03D04FF0FF30410800E0104645
:100BE000B8F1000F03D00022009215461EE0751EDA
:100BF00005D4FFF7C9FE303262556D1EF9D5B346F4
:100C00000122084302D000227F1C04E02078302813
:100C100001D100227F1E002A099784D01DE0112DEA
:100C200007DAFFF7B1FE303262556D1C50EA01025F
:100C3000F5D1084302D00098C8B10EE00021681E2B
:100C400005E0235C625C63542254401E491C8142CF
:100C5000F7DBAB46A81B401E0990002004F80B00F0
:100C60000B98099AC0F80880C0E9002B7AE7112692
:100C70004FF0000857E72DE9F04F88460446D21D93
:100C800022F0070191B0D1E90001CDE90A0102F09B
:100C90006EFD02460B98C00F01D02D2007E02068A2
:100CA000810701D52B2002E0202101EAC000032AA0
:100CB000099001D0072A05DB03464146204600F093
:100CC00011FB0BE12078800601D5E06900E00620E9
:100CD000B8F1650F814606D0B8F1660F18D0B8F1AB
:100CE000670F70D131E00020B9F1110F009001DBE6
:100CF000112301E009F101030AAA01A90CA8FFF7D9
:100D0000E2FEDDE90C70002609F10105834647E0AB
:100D100001204B4600904FF000470AAA01A90CA8F9
:100D2000FFF7D1FEDDE90DB00C995D46002610B944
:100D300009F101000D18B9EB050003D4C0F1FF362D
:100D400009F10105A5EB09002BE0B9F1010F01DA6A
:100D50004FF001090020B9F1110F0090484601DD64
:100D6000112300E003460AAA01A90CA8FFF7ABFE75
:100D7000DDE90C704D4600268346207800070AD432
:100D8000AB4500DA5D4601A8012D04DD411911F8DB
:100D9000011C302907D04F4502DA17F1040F04DA9D
:100DA000012082460FE06D1EEEE7002F02DCED1BF6
:100DB0003E4403E0781CA84200DD7D1CB81B00F116
:100DC000010A4FF000472078000703D4AA4501DB51
:100DD0004FF0FF3A0021B7F1004F0DF143088DF8B5
:100DE000431024D002202B23002F01DA7F422D2331
:100DF0000A21021EA0F1010000DC5FB197FBF1FCAB
:100E000097FBF1F201FB1C7C17460CF1300C08F843
:100E100001CDEEE7A8F1010003702188090501D595
:100E2000452100E06521A0F1010800F8011C0998A6
:100E30000FA9A1EB0807FF1D00B10120411901EB2B
:100E4000EA70A1693844081A401EA0612078C006E3
:100E500002D42046FFF7B4FA099828B1D4E9012159
:100E60009047206A401C20622078C00622D5204688
:100E7000FFF7A6FA1EE0002E04DBB34502DD01A851
:100E8000805D00E03020D4E901219047206A401CB9
:100E90002062761CAAF101005FEA000A0AD100F084
:100EA0001DFAC0680168405CD4E901219047206ABE
:100EB000401C2062281EA5F10105DCDC07E0D4E916
:100EC000012118F8010B9047206A401C2062381E4F
:100ED000A7F10107F3DC2046FFF788FA032011B0E1
:100EE00041E600002DE9F04F04460D46D21D22F0E8
:100EF000070089B0D0E900974846394602F037FC30
:100F00000246F80F01D02D2307E02068810701D5A4
:100F10002B2302E0202101EAC0038DF820300BB121
:100F2000012000E00020032A824601D0072A04DBCA
:100F30002946204600F0D6F93FE12078800601D40A
:100F40000D2500E0E569C7F30A560D2D49DA0021A9
:100F50004FEA175B08464FF00000002F00F44000F6
:100F600007DA00EB80004FF4400100EBD07001EA9B
:100F700060008115012901DD4FF0FF3100224FEAA9
:100F8000850CBCF1180F06D31346ACF118004FF0D6
:100F90008052C24003E04FF4801323FA0CF30CF1AB
:100FA0000C0CBCF1200F04D3ACF1200C09FA0CF0AE
:100FB00001E007FA0CF000294FF0004801DD18B9F4
:100FC0000FE00ED140450CD319EB02095F4121B966
:100FD000404502D19F4329EA0209BBEB175F00D0CD
:100FE000761C2088000502D57B48784402E07A48C8
:100FF0007844193808AA302302F80A30037C0AF131
:101000000101002E0AF1020A53546A4602DC4FF035
:10101000300101E04FF031014FF001088DF8001070
:1010200002D0A6F2FF3603E059EA470100D06B4E2A
:10103000002D02DC2178090704D54FF002082E218B
:101040008DF80110C44600210BE0C7F303433F01B4
:10105000C35C491C6D1E02F80830052908F101081F
:1010600001DA002DF1DC00210CE000EB1973491CC2
:101070001B786D1E082902F808304FEA091908F19B
:10108000010801DA002DF0DC21688B0602D516E09C
:10109000A8F10108E04505DD02EB080313F8013C67
:1010A000302BF5D0B8F1000F09DD02EB080313F87F
:1010B000013C2E2B03D1090701D4A8F10108002D12
:1010C00005DD3E2102F808106D1E08F10108407C84
:1010D000002E02F8080008F1010804DA2D207642FB
:1010E00002F8080002E02B2002F808000A214FF461
:1010F0007A70864208F101080BDB96FBF0F330337F
:1011000002F8083096FBF0F308F1010800FB1366C3
:1011100001E0642E0CDB642096FBF0F3303302F820
:10112000083096FBF0F308F1010800FB136601E0BC
:101130000A2E06DB96FBF1F0303002F8080008F1C9
:10114000010896FBF1F001FB1060303002F8080056
:10115000A16908F1010808EB050202EB0A00081A70
:10116000A0612078C00602D42046FFF729F9216A41
:1011700008AE01EB0A00206204E0D4E9012116F870
:10118000010B9047BAF1010AF7D22078C00602D5C8
:101190002046FFF715F96E4609E016F8010B3E28C8
:1011A0000FD0D4E901219047206A401C2062B8F199
:1011B0000108F2D22046FFF719F909B00320BDE873
:1011C000F08F206A2844206203E0D4E90121302016
:1011D00090476D1EEBD3F8E7F258000002FCFFFFCA
:1011E00010B5436913B1AFF3008001E0FFF721F9B7
:1011F000012010BD127800F124010A7000224A700B
:101200000122EDE711684FF0FF32E9E710B54369BD
:1012100013B1AFF3008001E0FFF7A2F9012010BD88
:10122000128800F1240182840022C2840122EDE7A9
:1012300011684FF0FF32E9E770B516460C460546D7
:1012400000F044F8036893F80101012806D0FF2C50
:101250000FD8185D68B101202C7070BDD3F807015C
:101260003246214603F2071303442846BDE8704086
:1012700018474FF0FF3070BD004870473C480020D1
:101280007546FFF7F9FFAE4605006946534620F064
:101290000700854618B020B5FFF726F8BDE82040C6
:1012A0004FF000064FF000074FF000084FF0000B22
:1012B00021F00701AC46ACE8C009ACE8C009ACE8D5
:1012C000C009ACE8C0098D467047000010B500F0B9
:1012D00005F8001D10BD00BF354D000000487047E7
:1012E0005C4800202DE9F0411F46044603260168B2
:1012F000072A01F4006004DB08B116A505E016A575
:1013000003E008B115A500E015A521F0100020604C
:10131000A069C01EA0610FB1401EA0612046FFF76A
:101320004FF84FB1D4E9012138469047206A401C5C
:101330002062C01C206206E0206AFAE7D4E901219D
:1013400015F8010B9047761EF8D22046FFF74EF8AD
:10135000BDE8F0814E414E006E616E00494E460080
:10136000696E66002DE9F047814616468AB0354819
:1013700078440DC88DE80D0032487844801C03ACD9
:101380000DC884E80D0041F69B300844372190FBDE
:10139000F1F290FBF1F5A5F1800501FB12041B3C75
:1013A00002D56442012000E00020DFF898A08046CA
:1013B0000027FA44AAF1BE0A0EE0E0070AD032463E
:1013C000684607EB470101230AEB810100F01EFB91
:1013D0008DE8070064107F1C002CEED1194F7F446C
:1013E000AE3F19E0E80715D007EB04100DF1180A1D
:1013F00090E80E008AE80E00C068F04201D198190A
:1014000008903246012306A903A800F0FFFA03ABB7
:1014100083E807006D10641C002DE3D14FF0010339
:1014200032466946B8F1000F03A802D000F0D9FA9D
:1014300001E000F0EBFAC9E90001C9F808200AB0A0
:10144000BDE8F087FC55000010B50446AFF30080FE
:101450002046BDE81040FEF7E6BE00004FF0013C1C
:1014600050F8042B51F8043B9A4221D1A2EB0C0313
:10147000934313EACC1317D150F8042B51F8043BD3
:101480009A4215D1A2EB0C03934313EACC130BD170
:1014900050F8042B51F8043B9A4209D1A2EB0C03FB
:1014A000934313EACC13DBD04FF00000704700BF2A
:1014B000D01A01BAB1FA81F101F0180122FA01F053
:1014C000CB40C1F12001DBB2C0B2C01A2CFA01F34B
:1014D000D11A914311EAC311E6D17047014918208E
:1014E000ABBEFEE72600020070475FEA400C08BF73
:1014F00091F0000F4FEA8C234FEAC12243EA515189
:101500004FEA1C5018BF00F5F0404FEA300018BFFA
:1015100041F000415FEA6C5C00F02980BCF1FF3FC4
:1015200008BF40F080407047130C06BF12044FF014
:10153000100C4FF0000C130E04BF12020CF1080C3B
:10154000130F04BF12010CF1040C930F04BF92009F
:101550000CF1020CD30F04BF52000CF1010C114628
:101560004FF00002A0F11F00A0EB0C00704711F03B
:10157000004F08BF704731F000413FF4D5AF0B0C6E
:1015800006BF09044FF0100C4FF0000C0B0E04BF07
:1015900009020CF1080C0B0F04BF09010CF1040C3B
:1015A0008B0F04BF89000CF1020CCB0F04BF490064
:1015B0000CF1010CCCF12003A0EB0C0022FA03F398
:1015C00002FA0CF241EA030100F10100704720F039
:1015D0007F4C80EA030023F07F47ACEB070303F561
:1015E0007C5300F0004003F1FF032DE980494FEAEE
:1015F000154B09B44FEA144325EA0B4E24EA03487D
:101600000FF2042606EB132749083E785FEA320200
:1016100003FB0667C7F5000707FB06F64FEA5437DA
:101620004FEAD64606F1020607FB066CCCF1005CD9
:101630004FEA1C472CEA074C07FB06F40CFB06F5A7
:1016400004EB15464FEA961634BF00204FF00040D9
:101650004FEAD13706FB07FC4FEA1C4C0CFB0BF79B
:10166000D21B03FB0CF761EB07010CFB0EF7B0EB91
:10167000074072EB17420CFB08F734BFA2EB07429E
:10168000B2EB074261EB17414FEA0C444FEA910776
:1016900006FB07FC4FEA1C4C0CFB0BF7B0EBC740FA
:1016A00072EB573203FB0CF734BFA2EBC742B2EB2D
:1016B000C74261EB57310CFB0EF7B0EBC70072EB82
:1016C00057720CFB08F734BFA2EBC702B2EBC7029C
:1016D00061EB5771039F4FEA816141EA921104EB7C
:1016E000CC044FEAD1374FEA826206FB07FC42EA9C
:1016F00090124FEA80604FEA1C4C0CFB0BF7D21B98
:1017000003FB0CF761EB07010CFB0EF7B0EB074096
:1017100072EB17420CFB08F734BFA2EB0742B2EBA7
:10172000074261EB17414FEA8C554FEA910704EBF2
:101730009C2406FB07FC4FEA1C4C0CFB0BF7B0EBA0
:10174000C74072EB573203FB0CF734BFA2EBC74222
:10175000B2EBC74261EB57310CFB0EF7B0EBC700A1
:1017600072EB57720CFB08F734BFA2EBC702B2EB67
:10177000C70261EB577115EB4C254FEA816141EAD5
:1017800092114FEA82624FEAD13742EA901206FB89
:1017900007FC44F100044FEA80604FEA1C4C0CFB4C
:1017A0000BF7D21B03FB0CF761EB07010CFB0EF7E9
:1017B000B0EB074072EB17420CFB08F734BFA2EB0B
:1017C0000742B2EB074261EB174115EB1C154FEADC
:1017D000813141EA92414FEA823242EA90424FEA35
:1017E00080304FEA0C7644F1000448EA03434EEAA5
:1017F0000B484FF0000EB2EB080C71EB030724BF4F
:10180000624639464EEB0E0E4FF0000B0018524167
:1018100049414BEB0B0BB2EB080C71EB03077BF16F
:10182000000B24BF624639464EEB0E0E4FF0000B04
:101830000018524149414BEB0B0BB2EB080C71EB1A
:1018400003077BF1000B24BF624639464EEB0E0EB8
:1018500051EA020718BF46F0010616EB0E7655F165
:10186000000254F1000103D5BDE88901BDE80088FC
:10187000BDE88901BDE80048B619524141EB0101BC
:10188000A3F10103704780807F7E7D7C7B7A79782D
:10189000777676757473727171706F6E6E6D6C6C35
:1018A0006B6A6A69686867666665646463636261D7
:1018B0006160605F5F5E5E5D5D5C5C5B5B5A5A5958
:1018C00059585857575656555555545453535252C4
:1018D0005251515050504F4F4F4E4E4D4D4D4C4C1C
:1018E0004C4B4B4B4A4A4A49494948484847474765
:1018F00047464646454545444444444343434342A2
:10190000424242414141002B9C4630D477002BD0CB
:101910001CB54FEA370703B44FF010004FF0100129
:10192000BAF1000F06D0BCF1000FDCBF40F0080098
:1019300040F008014FF000000FBCBDE810400BF173
:10194000010BBBF1010F08BF5FEA170722BF12F1BD
:10195000010211F101014FF0004143F1000300F0D9
:10196000004043EA00007047F9D35708D0E746EA41
:10197000064613F1400F4FEA16461FDD13F1200F04
:10198000DFBF16430A46002120335B42BED0C3F1BD
:10199000200746EA064602FA07F74FEA164646EAE5
:1019A0000706C3F1200722FA03F201FA07F721FA2A
:1019B00003F14FF0000342EA0702A7E746EA0206F6
:1019C00046EA06464FEA164646EA0106BCBF46EA24
:1019D0000646360C4FF000034FF000024FF00001B6
:1019E00094E72DE9804C9A46934670B491E838000C
:1019F00007C831EA400C48BF34EA430C03D5FFF76F
:101A0000E6FDFFF780FFF0BCBDE8008C2DE9804CBF
:101A10009A46934670B491E8380007C810F0804F9A
:101A200008BF13F0804F03D100F005F8FFF76BFFFC
:101A3000F0BCBDE8008C20F07F4780EA030023F073
:101A40007F4C07EB0C03A3F57C5300F00040A3F19F
:101A5000FE0392F0000F00F0B38095F0000F00F04D
:101A600077802DE901494FEA11404FEA144621EAF7
:101A7000004800FB06FC24EA064708FB06F607FBC5
:101A800008F800FB07F718EB06484CEB164C4FEA3A
:101A9000124B18EB07484FEA15464CEB174022EA69
:101AA0000B4E0BFB06FC25EA06470EFB06F607FB72
:101AB0000EFE0BFB07F71EEB064E4CEB164C4FF0E1
:101AC00000061EEB074E4CEB174B18EB0B0840F1D2
:101AD000000018EB0E0B58EB000840F100008F1AC5
:101AE0004FF000013CBFC943661B14BFB5EB040CAB
:101AF00000213CBFC943F61B4FEA17444EEA8E0E45
:101B000027EA04454FEA1C4704FB07622CEA074C0E
:101B100005FB07F70CFB05F604FB0CFC16EB074670
:101B200042EB174216EB0C4642EB1C421BEB06063F
:101B300058EB0202414146EA9E0601D5BDE8018903
:101B4000B619524141EB0101A3F10103BDE801893E
:101B50004FEA14454FEA114724EA054621EA074CAB
:101B600005FB07F406FB07F70CFB06F105FB0CFC75
:101B700011EB074144EB17444FEA124711EB0C41BC
:101B800044EB1C4422EA074C05FB07F206FB07F76F
:101B90000CFB06F605FB0CFC16EB074642EB174266
:101BA00016EB0C4642EB1C456A1854F1000148BF85
:101BB0007047B619524141EB0101A3F1010370478F
:101BC00095F0000F37D04FEA11424FEA144721EA4F
:101BD000024624EA074C02FB07F106FB07F70CFB61
:101BE00006F402FB0CFC14EB074441EB17414FEAEF
:101BF000154714EB0C4441EB1C4125EA074C02FB52
:101C000007F506FB07F70CFB06F602FB0CFC16EBD0
:101C1000074645EB174516EB0C4645EB1C421219DF
:101C200051F1000148BF7047B619524141EB010123
:101C3000A3F1010370474FEA14454FEA114724EA24
:101C4000054621EA074C05FB07F106FB07F70CFBED
:101C500006F24FF0000605FB0CFC12EB074241EBCD
:101C6000174112EB0C4251EB1C4148BF70479218D0
:101C700041EB0101A3F10103704721B1826842F0F9
:101C80000102826003E0826822F0010282607047F4
:101C900021B1826842F48072826003E0826822F49B
:101CA000807282607047014600208A6802F0040258
:101CB0000AB1012000E000207047014600208A6838
:101CC00002F008020AB1012000E000207047000085
:101CD00030B502460020002350680F4C20400D799B
:101CE0000C6844EA05242043506090680B4C204067
:101CF000D1E902542C434D7944EA450420439060D5
:101D0000D06A20F470000C7C641EE4B2234340EAE5
:101D10000350D06230BD0000FFFEF0FFFDF7F1FF81
:101D2000F0B504460D4600200021092D11DDE068C4
:101D3000A5F10A0606EB4607072606FA07F18843CF
:101D4000A5F10A0606EB460603FA06F10843E06031
:101D50000CE0206905EB4507072606FA07F18843E2
:101D600005EB450603FA06F108432061072A0FDA5E
:101D7000606B561E06EB86071F2606FA07F188439E
:101D8000561E06EB860605FA06F10843606322E05C
:101D90000D2A0FDA206BD61F06EB86071F2606FAE0
:101DA00007F18843D61F06EB860605FA06F10843BD
:101DB000206310E0E06AA2F10D0606EB86071F26FD
:101DC00006FA07F18843A2F10D0606EB860605FA2E
:101DD00006F10843E062F0BD816841F008018160CE
:101DE000704721B1826842F4A002826003E08268F9
:101DF00022F4A00282607047816841F00401816092
:101E00007047000000B591B00121480201F01AF8B6
:101E10000121042001F016F80121084600F0F2FF2C
:101E20004FF4004000F0E2FF00208DF8430007204F
:101E3000ADF8400003208DF8420010A9364800F0AC
:101E4000AFF90523012200213448FFF769FF05237C
:101E5000022201213148FFF763FF052303220221FB
:101E60002E48FFF75DFF00200B900E904FF460208E
:101E70000D9001208DF831008DF8300003208DF891
:101E80003C000BA92548FFF723FF24484C30009065
:101E90008015069000200490214801904FF4806046
:101EA00007908020059000200290032003902020BE
:101EB000089000200A904FF4805009906946194814
:101EC00000F042F80121174800F032F801211348D0
:101ED000FFF7DEFE01211148FFF7CFFE0F48FFF7A5
:101EE0007BFF00BF0D48FFF7E8FE0128FAD00B4842
:101EF000FFF782FF00BF0948FFF7D5FE0128FAD09F
:101F000001210648FFF76DFF012003F0D1F90649D2
:101F1000086011B000BD000000080140002401402D
:101F2000A800002008000240B000002000BFFEE72B
:101F300021B1026842F00102026004E002684FF63B
:101F4000FE731A400260704710B50022026847F61F
:101F5000F0739A430C6A8B6823430C6923434C69E2
:101F600023438C692343CC6923434C6A23438C6A03
:101F700023431A430260CB6843600B6883604B685D
:101F8000C36010BD7047000038B54FF4006000F02A
:101F900031F801281DD10FA001F013F903F004FD61
:101FA000044600200D4B2246062100900C48006894
:101FB00003F0C6FF0948006838B14FF08050094966
:101FC0000860BFF34F8FBFF36F8F4FF4006000F0D6
:101FD0000BF838BD457869740D0A0000DC0000205C
:101FE000D400002004ED00E00149086070470000C3
:101FF00014040140014600200022074B1B6803EA3D
:102000000102054B14331B680B4013B10AB10120C8
:1020100000E0002070470000000401400021234937
:102020008279002A3AD00A46126803689A430B461E
:102030001A600A1D126803689A430B1D1A60027920
:1020400011440A6803681A430A60184A0832126881
:1020500003689A43154B08331A601A1D1268036807
:102060009A43124B0C331A604279102A0ED11A1F70
:10207000126803681A430D4B08331A601A1D126860
:1020800003681A43094B0C331A600DE00749427983
:1020900011440A6803681A430A6005E00279114492
:1020A0000A6803689A430A60704700000004014010
:1020B00000B585B00121042000F0C4FE01210846CE
:1020C00000F0C0FE48208DF813004FF40060ADF81A
:1020D000100003208DF8120004A91B4800F060F8DE
:1020E0000B21002000F03CF84FF40060029001202A
:1020F0008DF80E0000208DF80C000C208DF80D00DE
:1021000002A8FFF78BFF4FF4A06000F0AFFA282081
:102110008DF8040001208DF807008DF805008DF87A
:10212000060001A800F06AFA0848012300221421E1
:10213000009007A003F0B2FE0749086002F03AFFE2
:102140000649086005B000BD00080140D9460008F6
:1021500054696D6572320000D4000020D000002068
:1021600030B500228B071C0F0F2303FA04F20B4B30
:102170008C1053F824309343084C8D1044F82530CC
:1021800023468C1053F824308C07240F00FA04F4F3
:102190002343024C8D1044F8253030BD0800014027
:1021A0002DE9F041024600250026002000230024EE
:1021B000002791F803C00CF00F0591F803C00CF054
:1021C000100CBCF1000F03D091F802C04CEA0505D9
:1021D00091F800C0BCF1000F31D0146800202BE052
:1021E0004FF0010C0CFA00F3B1F800C00CEA030642
:1021F0009E4220D183004FF00F0C0CFA03F7BC4332
:1022000005FA03FC4CEA040491F803C0BCF1280F62
:1022100006D14FF0010C0CFA00FCC2F814C00AE021
:1022200091F803C0BCF1480F05D14FF0010C0CFA36
:1022300000FCC2F810C0401C0828D1D31460B1F8CB
:1022400000C0BCF1FF0F34DD546800202EE000F127
:10225000080C4FF0010808FA0CF3B1F800C00CEAC2
:1022600003069E4221D183004FF00F0C0CFA03F7B6
:10227000BC4305FA03FC4CEA040491F803C0BCF12A
:10228000280F05D100F1080C08FA0CF8C2F81480E8
:1022900091F803C0BCF1480F07D100F1080C4FF0D2
:1022A000010808FA0CF8C2F81080401C0828CED3A8
:1022B0005460BDE8F0810246002093680B400BB1EA
:1022C000012000E0002070474161704701617047C4
:1022D0000AB1016100E04161704700BFFEE7000004
:1022E0000EB50121082000F0ADFD10208DF80B0087
:1022F0000002ADF8080003208DF80A0002A9144876
:10230000FFF74EFF4FF480511148FFF7DFFF1148F0
:102310000123002240F6B83100900FA003F0BEFD6B
:102320001049086000200A2103468022CDE90010F0
:102330000DA1114803F0F2FA00200A210346802281
:10234000CDE900100DA1124803F0E8FA0EBD00001F
:10235000000C0140492400084C45445F54494D4558
:1023600052000000A40000204C45445F6F70656E71
:102370005F5461736B000000E92300084C45445F23
:1023800064697361626C655F5461736B0000000087
:10239000BD23000810B54FF480510248FFF796FFA7
:1023A00010BD0000000C014010B54FF480510248F0
:1023B000FFF78AFF10BD0000000C014008B50FE0D8
:1023C0004FF0FF3001231A460221009005480068B3
:1023D00002F072FEFFF7DEFF4FF4FA7002F09CFB92
:1023E000EEE70000C400002008B525E04FF0FF3004
:1023F00001230022022100901048006802F05CFED8
:102400004FF0FF3001231A46022100900C4800686B
:1024100002F052FEFFF7C8FF03F0C0FA04460020A6
:1024200003462246012100900648006803F088FD1B
:102430004FF4FA7002F070FBD8E70000D0000020E3
:10244000C0000020A400002010B50446FFF7A2FF42
:1024500010BD00BFFEE700000EB50121042000F012
:10246000F1FC10208DF80B003020ADF8080003209F
:102470008DF80A0002A91248FFF792FE00F064FCF2
:1024800010480123002240F6B83100900EA003F05E
:1024900005FD1049086000200A2103468022CDE98D
:1024A00000100DA1104803F039FA00200A2103465C
:1024B0008022CDE900100DA1114803F02FFA0EBDC6
:1024C00000080140ED2500084D6F746F725F54499C
:1024D0004D455200B40000204D6F746F725F6F70F5
:1024E000656E5F5461736B00712500084D6F746FEA
:1024F000725F64697361626C655F5461736B000045
:102500004525000810B50446002C0BDB10210C48B3
:10251000FFF7DCFE20210A48FFF7D6FEA0B200F04C
:102520005DFC0BE010210648FFF7CEFE2021044899
:10253000FFF7CCFE614288B200F050FC10BD0000F5
:102540000008014008B510E04FF0FF3001231A46A3
:10255000602100900548006802F0AEFD0020FFF702
:10256000D1FF4FF4FA7002F0D7FAEDE7C400002073
:1025700008B529E04FF0FF3001230022022100902E
:102580001248006802F098FD11A000F01AFE4FF00A
:10259000FF3000230122602100901248006802F001
:1025A0008BFD1420FFF7AEFF03F0F8F9044600207E
:1025B00003462246012100900B48006803F0C0FC4E
:1025C0004FF4FA7002F0A8FAD4E70000D00000201F
:1025D0004D6F746F725F6F70656E5F5461736B0DDA
:1025E0000A000000C0000020B400002010B504461E
:1025F0000020FFF787FF10BD7047000070B5002175
:1026000000230F22C47804B3154C246804F4E0645A
:10261000C4F5E064210AC1F10403CA40447804FA15
:1026200003F184781440214309010E4C0678A1552A
:10263000047804F01F050124AC4005786D11AD004D
:1026400005F1E025C5F8004109E0047804F01F0514
:102650000124AC40044D0678761145F8264070BD43
:102660000CED00E000E400E080E100E002490143FD
:10267000024A1160704700000000FA050CED00E00E
:1026800000200CE0002106E00022064B03EBC01303
:102690005A544A1CD1B28029F6DB421CD0B2082819
:1026A000F0DB70473C4400202DE9F04304460D4622
:1026B00016461F46284638E0224631E0002A2DDB28
:1026C0007F2A2BDC002829DB3F2827DC4FEAE07C2F
:1026D00000EB5C7C4FEAEC0CDFF8588008EBCC1C7C
:1026E0001CF802C003464FEAE07800EB58784FEA46
:1026F000E808A0EBC8094FF0010808FA09F82CEA2D
:10270000080C01464FEAE07800EB58784FEAE808F9
:10271000DFF8209009EBC81808F802C0511C0AB273
:10272000A1199142CADC411C08B2E9198142C3DCFB
:10273000BDE8F0833C4400202DE9FF4F86B0069EA3
:10274000079CDDF82080DDF82490002001900090A7
:102750004C450FD1464502DDB2464646D046354689
:1027600005E02146284600F0A3F8681C05B245455F
:10277000F7DD99E046450FD14C4502DDA2464C46B7
:10278000D146274605E03946304600F091F8781CDE
:1027900007B24F45F7DD87E0464505DDB2464646C0
:1027A000D046A2464C46D1464C4507DD604204B2B5
:1027B000C9F100000FFA80F901200190A9EB040093
:1027C000A8EB0601884207DDB24626465446C246BB
:1027D000C846D14601200090A8EB060000B2059043
:1027E000A9EB04000FFA80FB4FEA4B0000B2039004
:1027F0000598ABEB0000400000B202900598C0EBDA
:102800004B0000B2049035462746019838B1009835
:1028100028B1684201B2384600F04AF812E0019847
:1028200028B1784201B2284600F042F80AE0009848
:1028300020B12946384600F03BF803E039462846E7
:1028400000F036F82EE0681C05B20498002805DA7E
:10285000DDE90310084400B2049006E0781C07B2DA
:1028600002990498084400B20490019838B1009885
:1028700028B1684201B2384600F01AF812E0019817
:1028800028B1784201B2284600F012F80AE0009818
:1028900020B12946384600F00BF803E039462846B7
:1028A00000F006F84545CEDB0AB0BDE8F08F000029
:1028B00070B50346002B20DB7F2B1EDC00291CDBC0
:1028C0003F291ADCCC1701EB5474E4100B4D05EBD7
:1028D000C414E45C0A46CD1701EB5575ED10A1EB6D
:1028E000C5060125B5402C430846CD1701EB5575AB
:1028F000ED10024E06EBC515EC5470BD3C440020B3
:1029000038B5002406E0002500E06D1CB5F57A7F9F
:10291000FBD3641CB4F57A7FF5D30121082000F0C5
:1029200091FA14208DF8030003208DF802004FF473
:102930008070ADF8000069460848FFF731FC4FF49D
:102940000070ADF8000069460448FFF729FC01203B
:1029500000F0A0F9012000F0A9F938BD000C0140F9
:1029600070B50546002411E080212141294009B1BC
:10297000012100E00021084600F098F9012000F054
:1029800089F9002000F086F9601CC4B2082CEBDB4A
:10299000012000F07FF9002000F07CF970BD10B537
:1029A000012000F083F9012000F074F9002000F00C
:1029B0007DF9002000F06EF910BD10B5002000F088
:1029C00075F9012000F066F9012000F06FF910BDE3
:1029D00010B5FFF795FFAE2000F074F9D52000F098
:1029E00071F9802000F06EF9A82000F06BF93F200B
:1029F00000F068F9D32000F065F9002000F062F9DA
:102A0000402000F05FF9A12000F05CF9C82000F040
:102A100059F9DA2000F056F9122000F053F981201C
:102A200000F050F9CF2000F04DF9D92000F04AF91C
:102A3000F12000F047F9DB2000F044F9302000F0ED
:102A400041F9A42000F03EF9A62000F03BF98D20CA
:102A500000F038F9142000F035F9AF2000F032F919
:102A6000FFF70EFE00F002F910BD10B5024601207E
:102A700000E050430B1EA1F10101FAD110BD70B569
:102A800005460C4645F0B00000F01CF9102141EA63
:102A9000141000F017F904F00F0000F013F970BDE6
:102AA000F8B506460F4614461D46082D0CD1A4F174
:102AB00020000E4901EB0010102308223946009037
:102AC000304600F017F80FE0062D0DD1A4F12000DC
:102AD00000EB4000064901EB40000823062239467E
:102AE0000090304600F006F8F8BD00004060000895
:102AF000306600082DE9FF4F80460E469146DDF80E
:102B000034B0002500244A4631464046039BFFF777
:102B1000CBFD00BF5EE0002558E008EB0500002873
:102B200052DB08EB05007F284EDC3046F11706EB40
:102B30005171C9100FB2F11706EB5171C910A6EB14
:102B4000C10A002E05DA781E07B20AF108000FFA52
:102B500080FA3819002817DB3819072814DC3819CF
:102B6000224901EBC01008EB0501405C04FB095150
:102B70001BF8011001FA0AF1084339191B4A02EB4C
:102B8000C11108EB050288543819401C00281BDBD2
:102B90003819401C072817DC3819401C134901EB71
:102BA000C01008EB0501405C04FB09511BF8011043
:102BB000CAF10802114108433919491C0B4A02EBBA
:102BC000C11108EB05028854681CC5B24D45A4DB51
:102BD000601CC4B20399481EC11700EB5171012259
:102BE00002EBE101A14296DCBDE8FF8F3C440020EE
:102BF0002DE9F0470646894617461D46DDF8208038
:102C0000002417E0281B411E0A20FFF72EFFB7FB08
:102C1000F0F00A21B0FBF1F201FB120000F1300AE2
:102C200004FB086108B2434652464946FFF738FFA5
:102C3000601CC4B2AC42E5DBBDE8F0872DE9F04191
:102C40000646884615461F46002409E02A5D04FB17
:102C5000076108B23B464146FFF722FF601CC4B241
:102C6000285D0028F2D1BDE8F081000010B50024F5
:102C70000BE000212046FFF702FF054901EBC410DD
:102C8000802100F02FF8601CC4B2082CF1DB10BDCD
:102C90003C44002010B5044622464FF4807102489F
:102CA000FFF716FB10BD0000000C014010B50446F4
:102CB00022464FF400710248FFF70AFB10BD0000E6
:102CC000000C014010B50446FFF769FE7820FFF7BD
:102CD00047FE0020FFF744FE2046FFF741FEFFF7C6
:102CE0006CFE10BD70B505460E46FFF758FE782005
:102CF000FFF736FE4020FFF733FE002404E0285D96
:102D0000FFF72EFE601CC4B2B442F8DBFFF755FE9D
:102D100070BD00001CB5FFF75BFE00200A210346D2
:102D20008022CDE9001002A1064802F0F7FD1CBD8B
:102D300073656E736F725F73686F775F7461736BC7
:102D400000000000D145000800B589B00121084607
:102D500000F068F80121042000F074F818208DF8C4
:102D600023000820ADF8200003208DF8220008A9D8
:102D70001948FFF715FA4FF0804000F049FB00209A
:102D8000ADF81A00ADF816006320ADF81800232046
:102D9000ADF8140000208DF81C0005A94FF080400C
:102DA00000F088FB01A800F077FB6020ADF804007C
:102DB0000020ADF80C000120ADF806000020ADF8B1
:102DC0000A0001A94FF0804000F028FB012188078C
:102DD00000F012FB09B000BD0008014010B5044628
:102DE00021464FF0804000F061FB10BD01460020FD
:102DF000034A506820F44040084350607047000088
:102E00000010024029B1064A52690243044B5A613C
:102E100004E0034A52698243014B5A617047000043
:102E20000010024029B1064AD2690243044BDA611C
:102E300004E0034AD2698243014BDA617047000023
:102E40000010024029B1064A92690243044B9A617C
:102E500004E0034A92698243014B9A617047000083
:102E60000010024030B500210022002400232D4D27
:102E70006D6805F00C0121B1042905D0082923D182
:102E800005E0294D056022E0274D05601FE0254D36
:102E90006D6805F47012234D6D6805F480340225C9
:102EA00005EB92421CB9214D554305600BE01D4DC9
:102EB0006D6805F400351DB11C4D5543056002E0F9
:102EC000194D5543056002E0174D056000BF00BF76
:102ED000144D6D6805F0F0010909154D6B5C05682E
:102EE000DD4045600F4D6D6805F4E061090A104D45
:102EF0006B5C4568DD4085600A4D6D6805F4605186
:102F0000C90A0B4D6B5C4568DD40C560054D6D68B9
:102F100005F44041890B074D6B5CC568B5FBF3F5C3
:102F2000056130BD0010024000127A0000093D002A
:102F300014000020240000201CB502F03BF80949D1
:102F4000086002F037F80849086000200A210346AB
:102F50004FF48072CDE9001004A1074802F0DEFCB6
:102F60001CBD0000C0000020C400002053656E732B
:102F70006F725F5461736B007D2F000860E0002367
:102F80005A1E19462F48006802F0E0F92E480688BC
:102F90004488858800231A4619462A48006802F0AA
:102FA00015FB40F6B83086420ADD0221274800684A
:102FB00002F00EF804212548006802F009F809E043
:102FC00002212348006802F003F804212048006829
:102FD00001F0FEFF40F29E7084420ADD20211B4872
:102FE000006801F0F5FF08211848006801F0F0FFC3
:102FF00009E020211648006801F0EAFF0821144882
:10300000006801F0E5FF40F6B83085420ADD402156
:103010000E48006801F0DCFF10210C48006801F048
:10302000D7FF09E040210A48006801F0D1FF1021D4
:103030000748006801F0CCFF40F6B83001F06CFDA5
:103040009DE70000B0000020A8000020C000002084
:10305000C400002000B589B001218803FFF7F2FE0B
:1030600001210420FFF7EEFE18208DF823004FF415
:103070000070ADF8200003208DF8220008A9264832
:10308000FFF78EF848208DF823004FF48060ADF8EC
:10309000200003208DF8220008A91F48FFF780F8C0
:1030A0004FF4E13004900020ADF81C000C20ADF886
:1030B0001A000020ADF81800ADF81600ADF81400A5
:1030C00004A9164800F0DCFA012240F22551134809
:1030D00000F0B0FA4FF4A060FFF7C8FA25208DF891
:1030E0000C0001208DF80F008DF80D008DF80E00FA
:1030F00003A8FFF783FA0121084800F058FA0020DE
:103100000A2103468022CDE9001005A1074802F0FC
:1031100005FC09B000BD0000000801400038014076
:1031200053657269616C5F5461736B00DD31000837
:1031300010B50246012000E050430B1EA1F1010131
:10314000FAD110BD0FB400B59BB01DA8019002A824
:10315000019A1C99FDF7DAF80020019002A800F00E
:1031600030F81BB05DF814FB10B504462146054845
:1031700000F0F7FA00BF8021024800F024FA00288E
:10318000F9D010BD003801402DE9F04106460C464B
:10319000002512E0601B411E0A20FFF7C9FFB6FBA5
:1031A000F0F00A21B0FBF1F201FB120000F1300750
:1031B0003846FFF7D9FF681CC5B2A542EADBBDE877
:1031C000F08170B50446002504E0605DFFF7CCFF98
:1031D000681CC5B2605D0028F7D170BD32E00023E5
:1031E0005A1E19461848006802F0B0F817480088BF
:1031F000174908801548408848801448808888808E
:1032000000231A4619461048006802F0DFF911A0A1
:10321000FFF798FF0E48018812A0FFF793FF0C48B4
:10322000418812A0FFF78EFF0948818811A0FFF79F
:1032300089FF074908880421FFF7A6FF41F288307B
:1032400001F06AFCCBE70000B0000020A8000020DD
:103250009E00002053656E736F725F446174613A23
:10326000200D0A004C3A256400000000543A256401
:1032700000000000483A25640000000010B500F08E
:1032800001F810BD0CB50020019000903348006893
:1032900040F480303149086000BF3048006800F4D5
:1032A000003000900198401C0190009818B90198D6
:1032B000B0F5A06FF1D12948006800F4003010B1DA
:1032C0000120009001E0002000900098012843D1E7
:1032D0002348006840F01000214908600846006853
:1032E00020F0030008600846006840F00200086013
:1032F0001A484068194948600846406848600846CE
:10330000406840F4806048600846406820F47C10C3
:1033100048600846406840F4E81048600846006885
:1033200040F08070086000BF0C48006800F000703A
:103330000028F9D00948406820F003000749486098
:103340000846406840F00200486000BF03484068FB
:1033500000F00C000828F9D10CBD0000001002405C
:103360000020024010B500BF502080F31188BFF349
:103370004F8FBFF36F8F00BF02F020FB18B14FF0EB
:1033800080500449086000BF002080F3118800BF0E
:1033900010BD000004ED00E010B51348006840F0D7
:1033A00001001149086008464068104908400E496C
:1033B0004860084600680E4908400B490860084606
:1033C000006820F4802008600846406820F4FE0071
:1033D00048604FF41F008860FFF750FF4FF0006017
:1033E0000449086010BD0000001002400000FFF812
:1033F000FFFFF6FE08ED00E021B1028842F0010275
:10340000028004E002884FF6FE731A400280704783
:1034100001894FF6F87211400181704770B50022A2
:1034200000230024058C4EF6FF7635400584038C7E
:103430008488828B48F6FF752A404FF6FF452A4064
:103440000D884FF6FF7606EA05252A434DF6FF75EF
:103450002B400D8906EA05352B434D8806EA0535D4
:103460002B430B4DA84202D00A4DA84208D14BF67F
:10347000FF752C408D894FF6FF7606EA85152C43A3
:1034800084808283CD88A0F84050038470BD000002
:10349000002C0140003401400021018041808180E6
:1034A000C180018141818181C1817047A0F84010B4
:1034B00070470000002202881D4B98420ED01D4B21
:1034C00098420BD0B0F1804F08D01B4B984205D0EA
:1034D0001A4B984202D01A4B984204D14FF68F7380
:1034E0001A404B881A43174B984207D0164B984204
:1034F00004D04FF6FF431A40CB881A4302808B88D2
:1035000083850B8803850A4B98420BD0094B984260
:1035100008D00E4B984205D00D4B984202D00D4B6F
:10352000984201D10B7A0386012383827047000001
:10353000002C01400034014000040040000800401D
:10354000000C00400010004000140040004001400A
:10355000004401400048014010B540F2255109489F
:1035600000F03EF801280CD1064800F0F5F80649B5
:10357000087001200549087040F22551014800F00B
:1035800007F810BD003801409C0000209D0000207D
:1035900010B50022002340F66A14A14200D100BFFA
:1035A0000A1201249440A3B2DC43048010BD21B16F
:1035B000828942F40052828104E082894DF6FF73D1
:1035C0001A408281704702460020B1F5007F00D189
:1035D00000BF13880B400BB1012000E000207047B2
:1035E00070B50246002400230025002040F66A162C
:1035F000B14200D100BFC1F3421501F01F03012603
:1036000006FA03F3012D02D19689334006E0022D1C
:1036100002D1168A334001E0968A33400C1201260B
:1036200006FA04F41688344013B10CB1012000E00E
:10363000002070BDF0B503460024002600250020C0
:1036400040F66A17B94200D100BF1846C1F34214D0
:1036500001F01F06012707FA06F5012C01D10C30F5
:1036600004E0022C01D1103000E014301AB10768D8
:103670002F43076002E00768AF430760F0BD00001A
:103680002DE9F04786B005460E460024A24600BF4D
:10369000A1460027B08900B100BF2F462C8A4CF606
:1036A000FF700440F08804432C82AC894EF6F3107E
:1036B0000440B08831890843718908430443AC81D0
:1036C000AC8A4FF6FF400440B0890443AC8201A8A5
:1036D000FFF7C8FB1F48874202D1DDF810A001E0C8
:1036E000DDF80CA0A88900F4004040B10AEBCA0044
:1036F00000EB0A1031684900B0FBF1F807E00AEB73
:10370000CA0000EB0A1031688900B0FBF1F86420B0
:10371000B8FBF0F004012009642101FB1089A8899D
:1037200000F4004040B1322000EBC900B0FBF1F0E2
:1037300000F00700044308E0322000EB0910642188
:10374000B0FBF1F000F00F0004432C8106B0BDE89F
:10375000F08700000038014001468888C0F3080067
:103760007047C1F308028280704700BFFEE749003E
:1037700050EAC12018BF04204A0D18BF40F00100D4
:1037800040F2FF72B2EB515F08BF40F00200012827
:1037900008BF0520704730380A2801D20120704741
:1037A0000020704710B500F0B3F800231A46194600
:1037B0000248006801F00AFF10BD0000C8000020A8
:1037C0001FE000235A1E19460E48006801F0BEFD96
:1037D00010E000F09DF84FF4FA7001F09DF900F050
:1037E0008DF84FF4FA7001F097F907480078401C03
:1037F00005490870044800780228EADB00200249E5
:103800000870DEE7C8000020CC00002008B50FE0FB
:103810004FF0FF3001231A461C2100900548006834
:1038200001F04AFC00F06AF84FF4FA7001F074F904
:10383000EEE70000C40000200EB501210420FFF7D0
:1038400001FB10208DF80B000001ADF808000320EB
:103850008DF80A0002A91748FEF7A2FC4FF4807108
:103860001448FEF733FD03220021012001F032FD50
:103870001149086000200A2103468022CDE900108A
:103880000EA1124802F04AF800200A2103468022C5
:10389000CDE900100EA1134802F040F800200A21E3
:1038A00003468022CDE900100FA1134802F036F83C
:1038B0000EBD000000080140C80000206265657070
:1038C0005F6F70656E5F7461736B0000253900086F
:1038D000626565705F64697361626C655F74617372
:1038E0006B0000000D380008626565705F616C61F7
:1038F000726D5F7461736B00C137000810B54FF4CF
:1039000080710248FEF7E2FC10BD00000008014093
:1039100010B54FF480710248FEF7D6FC10BD0000D0
:103920000008014008B519E04FF0FF3001230022E4
:10393000022100900A48006801F0BEFB4FF0FF3002
:10394000002301221C2100900648006801F0B4FB0E
:10395000FFF728FF4FF4FA7001F0DEF8E4E700000B
:10396000D0000020C000002010B5FFF773FBFEF769
:1039700049FAFFF7CFF9FFF7DFFAFEF76DFDFEF723
:10398000AFFCFFF759FFFEF793FB01F023FA00208D
:1039900010BD00002DE9F04105460E461C480768A1
:1039A0001C480068001D00F0FBFE50B91948006873
:1039B00090F82C1001208840174909688143164867
:1039C0000160681C38B936B112480168091D1348F6
:1039D00000F032FF1AE07C190E4800684460BC42D7
:1039E00007D20C480168091D0D48006800F00AFF65
:1039F0000CE008480168091D0A48006800F002FF51
:103A000009480068844201D207480460BDE8F0819B
:103A1000600000204C0000206400002000440020D2
:103A200054000020500000207C00002010B5044607
:103A300000F00EFF23480068401C2249086022481D
:103A4000006840B9204804600846006801280DD18C
:103A500000F028FA0AE01D48006838B91A480068E2
:103A6000C06AE16A884201D81748046018480068B3
:103A7000401C1749086094F82C1001208840154913
:103A80000968084313490860E16A01EB8101124AA1
:103A900002EB8100211D00F0CFFE00F019FF0B4862
:103AA000006868B108480068C06AE16A884207D2C5
:103AB0004FF0805009490860BFF34F8FBFF36F8FFD
:103AC00010BD00005C0000204C00002068000020B9
:103AD00078000020640000203041002004ED00E068
:103AE00010B500F0B5FE10480068D0B90F4800F0DE
:103AF00079FE0F4800F076FE0C480E4908600C482D
:103B00000D49086000220C210A2001F0E3FB064960
:103B100008600846006820B108A10348006800F06A
:103B2000BFFF00F0D5FE10BD90000020144400201F
:103B300028440020880000208C000020546D725121
:103B40000000000070B523E001F09CF91348006804
:103B500008B9012000E00020054602F00DF9BDB9CA
:103B600000F076FE0D48C068C468201D00F018FE05
:103B70000B480068401E0A4908600A480068401E59
:103B80000849086000F0A4FE204600F060F800BF7D
:103B9000044800680028D7D170BD0000EC43002025
:103BA0005C0000205800002070B504460D46206CD3
:103BB00070B1216CE0680844E0606168E0688842A8
:103BC00001D32068E0602846226CE168FCF7B0FB76
:103BD00070BD2DE9F04104460F4615464FF0000830
:103BE000A66B206C40B9206860BB606801F098FF4C
:103BF00080460020606025E07DB93946226CA068CF
:103C0000FCF796FB216CA0680844A060D4E9011081
:103C1000884217D32068A06014E03946226CE0681F
:103C2000FCF786FB216CE068401AE0602168E068E0
:103C3000884203D2216C6068401AE060022D01D1F5
:103C400006B1761E701CA0634046BDE8F08110B539
:103C50000446206B00F070FE204600F06DFE10BDA3
:103C60000146084A126812680AB9012200E00022DF
:103C70000A600A6822B9034A1268D268106800E034
:103C8000002070478800002030B54FF4804317486B
:103C900000F007042CB1C01D20F00700134C041BDA
:103CA0001B1B0246124C22600024114D6C60D01880
:103CB000083820F007000F4C206000240D4D2D68BF
:103CC0006C600C4D2D682C601146441A4C60094CF8
:103CD00024680C60084D4C682C60084D4C682C60C2
:103CE0004FF00044064D2C6030BD0000E000002085
:103CF000340000203C000020440000204000002050
:103D00004800002000BFFFF71DFF0648006801289B
:103D1000F9D94FF0805004490860BFF34F8FBFF3CB
:103D20006F8FF0E73041002004ED00E010B504464D
:103D30004CB1002060602060E06000231A46194604
:103D4000204601F043FC10BD2DE9F04106460D462A
:103D500017469846069C0DB9246000E02760E6638C
:103D600025640121204601F0D7FBBDE8F081000069
:103D70002DE9FF5F81460F469246DDE90E6B109CF0
:103D8000AAF10100216B01EB800828F0070808F078
:103D9000070008B9012000E0002028B940F22B32CA
:103DA0001BA121A0FFF7CEF9002507E0795D04F102
:103DB00034004155785D00B902E06D1C102DF5D33B
:103DC00000BF002143200155202E00D31F26E662AC
:103DD00066640020A064201D00F011FD04F11800AD
:103DE00000F00DFD2461C6F12000A0616462002096
:103DF000E06484F8500049464046039A00F0D6FB40
:103E00002060BBF1000F01D0CBF80040BDE8FF9F60
:103E10004672656552544F535C7372635C74617390
:103E20006B732E63000000004572726F723A257347
:103E30002C25640D0A0000002DE9F04706460D46CA
:103E400017469846DDE908940DB1012000E00020F6
:103E500028B94FF4C67209A10EA0FFF773F95CB13F
:103E6000FFF73EFE2660A561E761C4F82080C4F834
:103E70002490201D00F0C3FCBDE8F0874672656504
:103E800052544F535C7372635C74696D6572732E28
:103E9000630000004572726F723A25732C25640D21
:103EA0000A00000010B5002407E004EB84010F4A6B
:103EB00002EB810000F096FC641C202CF5D30C482A
:103EC00000F090FC0B4800F08DFC0B4800F08AFCE1
:103ED0000A4800F087FC0A4800F084FC04480949BD
:103EE000086004480849086010BD00003041002007
:103EF000B0430020C4430020D8430020EC430020FE
:103F000000440020500000205400002010B501465D
:103F1000164800E0006803688B42FBD30246436802
:103F200013448B4204D143684C68234443600146E8
:103F30000A464B6813440468A34211D10C4C036831
:103F40002468A34208D04B680468646823444B602B
:103F500003681B680B6005E0054B1B680B6001E004
:103F600003680B60884200D0016010BD340000205F
:103F70003C0000202DE9F04104460D4616461F4640
:103F80004FF0000865602461B5420CD8F01BA169B0
:103F9000884202D34FF0010811E0211D0948006852
:103FA00000F030FC0BE0BE4204D2BD4202D34FF021
:103FB000010804E0211D0448006800F023FC40468D
:103FC000BDE8F0818C0000208800002070B5054617
:103FD00000F03EFCA86B08B9012400E0002400F0CA
:103FE00077FC204670BD70B5054600F031FCA86B2B
:103FF000E96B884201D1012400E0002400F068FC54
:10400000204670BDF8B505460F4613480068C068E5
:10401000C468201D00F0C4FBE069012818D1A06924
:1040200041192B463A462046FFF7A4FF80B10020F5
:1040300003462A4601460090204601F081FF0646CD
:104040002EB94FF4027205A10AA0FFF77BF800BF5A
:104050002046616A8847F8BD880000204672656581
:1040600052544F535C7372635C74696D6572732E46
:10407000630000004572726F723A25732C25640D3F
:104080000A00000070B586B060E0039800285DDB90
:10409000059C606908B9012000E0002010B9201DCE
:1040A00000F07EFB02A800F0C7F8054603980A2836
:1040B0004AD2DFE800F00905072C2E4506082D2F0F
:1040C00000BF00BF00BF00BF0498A269811803466B
:1040D0002A462046FFF74EFFC0B12046616A884756
:1040E000E069012812D1002000900498A1694218CB
:1040F00000231946204601F023FF06462EB940F260
:10410000213218A11DA0FFF71DF800BF1DE000BF60
:104110001BE000BF0498A061A06908B1012000E085
:10412000002028B94FF44E720EA114A0FFF70AF830
:10413000A06941192B462A462046FFF71BFF04E0E1
:10414000204600F0F9FB00E000BF00BF00231A4644
:1041500003A90E48006801F0F9F8002895D106B0CF
:1041600070BD00004672656552544F535C737263B4
:104170005C74696D6572732E630000004572726F26
:10418000723A25732C25640D0A000000900000206F
:10419000F8B505460C4600F075FE684600F04CF890
:1041A0000646009820BB44B9B54206D801F0E4FDAC
:1041B00031462846FFF726FF1CE03CB10E48006858
:1041C000006808B9012000E000200446A91B22462F
:1041D0000A48006800F07AFC01F0CEFD50B94FF0BB
:1041E000805007490860BFF34F8FBFF36F8F01E026
:1041F00001F0C2FDF8BD00008C00002090000020FE
:1042000004ED00E00A490968096809B9012100E0E4
:10421000002121B14FF0FF31064A116006E0044948
:104220000968C968C868034A41681160704700009E
:10423000500000207C00002070B5044601F0AEFB69
:10424000054607480068854204D200F00BF80120BB
:10425000206001E00020206001480560284670BD14
:10426000980000202DE9F8432DE021480068C0683F
:1042700005681F480068C068C468201D00F090FAF7
:104280002046616A8847E06901281CD1A069461967
:10429000AE4207D966602461211D1548006800F010
:1042A000B1FA10E0002003462A460146009020465D
:1042B00001F046FE07462FB940F292320DA113A03D
:1042C000FEF740FF00BF0A480068006808B90120F7
:1042D00000E000200028C8D00548D0F800800F4832
:1042E0000068034908600D48C0F80080BDE8F88305
:1042F000880000204672656552544F535C737263A8
:104300005C74696D6572732E630000004572726F94
:10431000723A25732C25640D0A0000008C000020E1
:104320000B480068401C08B9012000E0002020B9BB
:10433000F42208A110A0FEF705FF00BF502080F373
:104340001188BFF34F8FBFF36F8F00BF00BFFEE731
:10435000280000204672656552544F535C706F729E
:10436000745C525644535C41524D5F434D335C7014
:104370006F72742E630000004572726F723A25737B
:104380002C25640D0A00000010B50346002022B958
:1043900003EA010434B1012004E003EA01048C4281
:1043A00000D1012010BD08B500BF6846FFF758FCDA
:1043B000044620460099FFF7EBFEFFF763FEF4E7A3
:1043C00070B5044600F044FA94F9455010E0606A74
:1043D00008B9012000E0002038B904F1240001F000
:1043E0000DFC18B100F0D4FB00E003E0681E45B2FC
:1043F000002DECDC00BFFF2084F8450000F068FAD7
:1044000000F026FA94F9445010E0206908B9012020
:1044100000E0002048B904F1100001F0EFFB08B102
:1044200000F0B6FB681E45B200E001E0002DECDCB8
:1044300000BFFF2084F8440000F04AFA70BD00007D
:104440002DE9F04104464FF0000800F01BFD3E4806
:10445000006808B9FFF718FC3C48006820400028B5
:104460005FD1A4B1083404F0070080B104F0070064
:10447000C0F10800044404F0070008B9012000E07E
:10448000002020B9BF2232A139A0FEF75BFE002C2C
:1044900047D03B480068844243D83A4E30460568CE
:1044A00001E02E462D686868A04202D228680028E4
:1044B000F7D125480068854233D0306800F10808FC
:1044C000286830606868001B102813D92F1907F07E
:1044D000070008B9012000E0002020B9EC221CA14F
:1044E00023A0FEF72FFE6868001B78606C603846DA
:1044F000FFF70CFD224968680968081A204908601E
:104500000846006820490968884203D21C480068B0
:104510001D4908600D496868096808436860002003
:10452000286001F029FC08F0070008B9012000E02C
:10453000002028B94FF4967205A10DA0FEF702FEE7
:104540004046BDE8F08100003C000020480000200B
:104550004672656552544F535C706F72745C4D6562
:104560006D4D616E675C686561705F342E6300003D
:104570004572726F723A25732C25640D0A00000093
:10458000400000203400002044000020064800685D
:1045900030B10549096801F14800896C491C016086
:1045A00001480068704700004C000020001F4FF0D9
:1045B00080730360001F21F001030360001F034BA1
:1045C000036014380260203870470000214300085F
:1045D00008B5082337A200215020FEF72FFB08233F
:1045E00035A200210846FEF729FB34A0FEF7E9FDBD
:1045F000082334A219210020FEF720FB082332A251
:1046000032210020FEF71AFB15233C221946002018
:10461000FEF792F82D233C2219460020FEF78CF875
:104620003F233C2200211046FEF786F83F237F22DD
:1046300019463C20FEF780F83AE000235A1E19463E
:104640002248006800F082FE214800882149088045
:104650001F48408848801E488088888000231A466A
:1046600019461A48006800F0B1FF08200090194868
:104670000288042300211420FEF7BAFA08200090D3
:1046800014484288042319211420FEF7B1FA0820A7
:10469000009010488288042332211420FEF7A8FAE3
:1046A000142000F039FAFEF7E1FA642000F034FA41
:1046B000C3E700004B4559004C3A00006F6C65643D
:1046C0000D0A0000543A0000483A0000B0000020F3
:1046D000A8000020B800002010B504461CA0FEF77A
:1046E00070FD4FF400611F48FDF7E5FD00282DD156
:1046F00008231DA21E214B20FEF7A0FA1C480078BB
:1047000088B91CA0FEF75DFD08231DA219214B20CE
:10471000FEF794FA02211C48006800F059FC0120C1
:104720001349087010E019A0FEF74BFD08231AA2E8
:1047300019214B20FEF782FA00200D490870022152
:104740001148006800F0FCFBFEF790FA10BD000075
:1047500074696D65725F63616C6C6261636B0D0A95
:104760000000000000080140202020202020200020
:10477000D8000020536574426974730D0A0000006C
:104780004F70656E00000000D0000020436C656132
:1047900072426974730D0A00436C6F736500000008
:1047A00001460A69D1E901309860D1E901035860F6
:1047B0005068884201D18868506000200861106804
:1047C000401E1060106870470549096888690449EF
:1047D0000968C96AC1F12001014A126891617047F4
:1047E0004C00002000F1080141604FF0FF31816072
:1047F00000F10801C16001610021016070470021E2
:104800000161704710B502460B685C1C0CB9106959
:1048100007E002F1080000E04068446824689C4218
:10482000FAD944684C604C68A160886041600A61B4
:104830001468641C146010BD42684A6093688B6001
:10484000936859609160086103685B1C036070475E
:1048500010B500BF502080F31188BFF34F8FBFF316
:104860006F8F00BF0B480068401C0A49086008466B
:10487000006801280DD108480068C0B208B90120BD
:1048800000E0002028B94FF4BD7204A10CA0FEF78F
:1048900059FC10BD2800002004ED00E0467265655B
:1048A00052544F535C706F72745C525644535C4167
:1048B000524D5F434D335C706F72742E6300000085
:1048C0004572726F723A25732C25640D0A00000040
:1048D00010B50B48006828B940F2811209A112A056
:1048E000FEF730FC06480068401E0549086008468F
:1048F000006820B9002080F3118800BF00BF10BD00
:10490000280000204672656552544F535C706F72E8
:10491000745C525644535C41524D5F434D335C705E
:104920006F72742E630000004572726F723A2573C5
:104930002C25640D0A00000070B506463546002E91
:1049400035D0083D2C461A4960680968084008B10E
:10495000012000E0002028B94FF4A07215A11DA08D
:10496000FEF7F0FB206808B9012000E0002028B91C
:1049700040F241120FA117A0FEF7E4FB0C4960685A
:104980000968084098B1206888B9094960680968D1
:104990008843606000F076FA12496068096808444C
:1049A000104908602046FFF7B1FA01F0E5F970BD43
:1049B000480000204672656552544F535C706F7218
:1049C000745C4D656D4D616E675C686561705F34E8
:1049D0002E6300004572726F723A25732C25640DA8
:1049E0000A00000040000020064800684FF47A7179
:1049F000B0FBF1F0401E4FF0E02148610720086154
:104A0000704700000000002070B5FBF75BFC054616
:104A1000102D11D305F1E02090F8F04310480078F4
:104A2000844201DB012000E0002028B94FF42A7203
:104A30000CA115A0FEF786FB1748006800F4E060A3
:104A400016490968884201D8012000E0002028B9F1
:104A50004FF42E7203A10CA0FEF774FB70BD000092
:104A60002C0000204672656552544F535C706F7283
:104A7000745C525644535C41524D5F434D335C70FD
:104A80006F72742E630000004572726F723A257364
:104A90002C25640D0A0000000CED00E03000002021
:104AA000024600200BE0084B53F8303033B9064B78
:104AB00043F8301003EBC0035A6002E0401C0A28A0
:104AC000F1D300BF70470000E04000202DE9F04125
:104AD00005460E4617462C46FFF7BAFE94F94400E9
:104AE000401C10B9002084F8440094F94500401C93
:104AF00010B9002084F84500FFF7EAFEA06B28B942
:104B00003A46314604F1240000F074F82046FFF7DD
:104B100057FCBDE8F081000070B504460025ACB13B
:104B20000F48006808B9012000E0002028B940F2D1
:104B3000CF420CA111A0FEF705FB00F0A3F9002164
:104B40002046FEF727FF01F017F905463DB94FF063
:104B500080500E490860BFF34F8FBFF36F8F70BD59
:104B6000840000204672656552544F535C73726333
:104B70005C7461736B732E63000000004572726F8A
:104B8000723A25732C25640D0A00000004ED00E044
:104B900001200149086070477000002070B504468C
:104BA0000D462CB940F6063207A10DA0FEF7CAFA51
:104BB0000F48016818312046FFF724FE01212846DE
:104BC000FEF7E8FE70BD00004672656552544F5313
:104BD0005C7372635C7461736B732E63000000001E
:104BE0004572726F723A25732C25640D0A0000001D
:104BF0004C00002070B505460E4614462DB940F60F
:104C0000313209A10EA0FEF79DFA11480168183152
:104C10002846FFF711FE0CB14FF0FF362146304613
:104C2000FEF7B8FE70BD00004672656552544F53E2
:104C30005C7372635C7461736B732E6300000000BD
:104C40004572726F723A25732C25640D0A000000BC
:104C50004C00002070B504460D4616462CB940F6AF
:104C6000173210A115A0FEF76DFA1848006808B1B8
:104C7000012000E0002028B940F61B3209A10FA056
:104C8000FEF760FA45F00040114909688861104854
:104C9000016818312046FFF7CFFD01213046FEF7AD
:104CA00079FE70BD4672656552544F535C737263F2
:104CB0005C7461736B732E63000000004572726F49
:104CC000723A25732C25640D0A0000008400002030
:104CD0004C00002070B505462C46002D4BD02649CF
:104CE000E06A0968C96A884245D2A06900F00040BC
:104CF00028B921480068C06AC0F12000A061E16ABB
:104D000001EB81011D4A02EB81016069884201D1FA
:104D1000012000E0002050B3201DFFF741FD78B9CD
:104D2000E06A00EB8000154951F8200040B994F882
:104D30002C10012088401249096881431048016005
:104D40000D480068C06AE06294F82C100120884089
:104D50000B49096808430A490860E16A01EB8101CF
:104D6000064A02EB8100211DFFF766FD03E00248C1
:104D70000068C06AE06270BD4C0000203041002035
:104D80006400002010B504462CB940F6C13205A1DC
:104D90000AA0FEF7D7F90D48006820600C480068AB
:104DA000606010BD4672656552544F535C73726308
:104DB0005C7461736B732E63000000004572726F48
:104DC000723A25732C25640D0A000000740000203F
:104DD000600000201CB51A4800210B468022CDE956
:104DE000001018A1194800F099FD0446012C02D1C9
:104DF00001F06CF80446012C15D100BF502080F35F
:104E00001188BFF34F8FBFF36F8F00BF4FF0FF309C
:104E10000F49086001200F49086000200E49086012
:104E200000F0F6F90BE0601C08B1012000E0002062
:104E300028B940F2847209A10EA0FEF783F91CBDC7
:104E40008000002049444C4500000000053D00085A
:104E50007C0000206800002060000020467265652C
:104E600052544F535C7372635C7461736B732E6343
:104E7000000000004572726F723A25732C25640D94
:104E80000A00000002480068401C014908607047A1
:104E90008400002010B51B48006818B101201A4991
:104EA00008602DE000201849086018480068B0FA32
:104EB00080F0C0F11F0404EB8400154951F8200074
:104EC00008B1012000E0002028B940F6F62211A127
:104ED00016A0FEF737F904EB84010D4A02EB8100BE
:104EE00041684968416000F1080142688A4202D184
:104EF0004168496841604168C968104A116000BF53
:104F000010BD00008400002070000020640000201C
:104F1000304100204672656552544F535C73726392
:104F20005C7461736B732E63000000004572726FD6
:104F3000723A25732C25640D0A0000004C000020F5
:104F40002DE9F04105460E462C462DB940F2DF1200
:104F50000DA114A0FEF7F6F806F07F4008B9012075
:104F600000E0002028B94FF4F07207A10DA0FEF771
:104F7000E9F8FFF76DFC27682068B0432060FFF771
:104F8000A7FC3846BDE8F0814672656552544F5320
:104F90005C7372635C6576656E745F67726F757063
:104FA000732E63004572726F723A25732C25640D5F
:104FB0000A00000010B51820FFF742FA044624B199
:104FC00000202060201DFFF70DFC204610BD0000D2
:104FD0002DE9FE4F07468846002001903C46009090
:104FE0002FB940F21D2229A12FA0FEF7ABF808F03F
:104FF0007F4008B9012000E0002028B940F21E22BD
:1050000022A129A0FEF79EF804F1040909F1080085
:105010000290FFF737FFD9F80C60206840EA0800DB
:10502000206026E0D6F804B035680020009005F036
:105030007F4A25F07F450AF0806028B92068284023
:1050400040B10120009005E020682840A84201D12D
:1050500001200090009858B10AF0807010B10198BA
:1050600028430190206840F00071304600F022FE95
:105070005E4602988642D5D1206801998843206017
:1050800000F07AFE2068BDE8FE8F0000467265657C
:1050900052544F535C7372635C6576656E745F67E0
:1050A000726F7570732E63004572726F723A25735A
:1050B0002C25640D0A0000002DE9FF4F83B08146C6
:1050C0000D461746DDF840804C464FF0000A0020A0
:1050D0000190B9F1000F05D140F24D1240A147A057
:1050E000FEF730F805F07F4008B9012000E000200D
:1050F00028B94FF4A7723AA140A0FEF723F80DB1EA
:10510000012000E0002028B940F24F1234A13BA05A
:10511000FEF718F800F032FC10B9B8F1000F01D119
:10512000012000E0002028B94FF4A9722CA133A07F
:10513000FEF708F8FFF7A6FE206800902946069AB9
:105140000098FFF721F90290029838B1009E4FF0C5
:105150000008B7B12068A843206012E0B8F1000F42
:1051600001D1009E0DE00FB14AF0807A069808B197
:105170004AF0806A45EA0A014246201DFFF76AFDAF
:10518000002600F0F9FD8346B8F1000F23D0BBF1F3
:10519000000F07D14FF080501C490860BFF34F8FBC
:1051A000BFF36F8FFFF710FB064606F0007080B963
:1051B000FFF74EFB266829463046069AFFF7E4F8CB
:1051C00018B117B12068A8432060FFF781FB0020C9
:1051D000019026F07F46304607B0BDE8F08F000012
:1051E0004672656552544F535C7372635C657665B5
:1051F0006E745F67726F7570732E63004572726FA5
:10520000723A25732C25640D0A00000004ED00E0BD
:105210001CB52248014609780191FF210246117010
:105220000146097800919DF8001001F050011C4AD8
:10523000117007211B4A116009E01A490968491ECB
:10524000184A11609DF800104906090E00919DF85A
:10525000001001F080018029EFD01249096809028D
:10526000104A11601146098801F4E06111600B4A8F
:10527000019911700C48006840F470000A490860F8
:105280000846006840F070400860FFF7ADFB002062
:1052900006490860FAF7E0FF00201CBD00E400E0CA
:1052A0002C0000203000002020ED00E0280000202D
:1052B0002DE9F04104460126002722460021012065
:1052C00000F008F805462846FEF730FD2846BDE800
:1052D000F08100002DE9F84305460E4690460DB1D9
:1052E000012000E0002028B94FF4C4720DA113A0E2
:1052F000FDF728FF0EB9002701E005FB06F707F1CF
:105300004800FFF79DF8044644B104F148094346BC
:105310004A46314628460094FEF716FD2046BDE871
:10532000F88300004672656552544F535C73726394
:105330005C71756575652E63000000004572726FC3
:10534000723A25732C25640D0A0000002DE9FF47F1
:1053500082B005460E461F464FF0000A2C462CB977
:1053600040F2DC4261A167A0FDF7ECFE0EB9206CB3
:1053700008B9012000E0002028B940F2DD425BA11D
:1053800060A0FDF7DFFE00F0F9FA08B9049808B94B
:10539000012000E0002028B94FF49C6253A159A0DD
:1053A000FDF7D0FE00BFFFF753FAD4F83890B9F1FB
:1053B000000F3DD0D4F80C8031462046FEF7F4FBB8
:1053C000DFB9A9F10100A063206810B9FFF7DEF88A
:1053D0006060206908B9012000E0002010BB04F1E2
:1053E000100000F00BFCE8B14FF080504949086014
:1053F000BFF34F8FBFF36F8F14E0C4F80C80606A67
:1054000008B9012000E0002060B904F1240000F098
:10541000F5FB38B14FF080503E490860BFF34F8F25
:10542000BFF36F8FFFF754FA012006B0BDE8F08795
:10543000049818B9FFF74CFA0020F6E7BAF1000F0C
:1054400004D16846FFF79EFC4FF0010AFFF740FACF
:10545000FFF718FDFFF7FCF994F94400401C10B960
:10546000002084F8440094F94500401C10B9002045
:1054700084F84500FFF72CFA04A9684600F0FCF90F
:1054800040BB2046FEF7A2FDF0B1206830B9FFF71F
:10549000DFF96068FFF71EFCFFF71AFA04F1240039
:1054A0000499FFF77BFB2046FEF78AFF00F064FCBF
:1054B00000287FF478AF4FF0805016490860BFF3A2
:1054C0004F8FBFF36F8F6EE72046FEF779FF00F036
:1054D00053FC68E72046FEF773FF00F04DFC2046C2
:1054E000FEF774FD0028EED000209EE74672656549
:1054F00052544F535C7372635C71756575652E63AE
:10550000000000004572726F723A25732C25640DFD
:105510000A00000004ED00E070B505460E462C467A
:105520002CB940F21B121EA123A0FDF70BFEFFF7C2
:105530008FF9D4E90F12206801FB0200606000209F
:10554000A0632068A060E06B401E226C216800FB15
:105550000210E060FF2084F8440084F845009EB902
:10556000206908B9012000E00020A8B904F110006A
:1055700000F044FB80B14FF0805013490860BFF346
:105580004F8FBFF36F8F07E004F11000FFF72AF988
:1055900004F12400FFF726F9FFF79AF9012070BD06
:1055A0004672656552544F535C7372635C717565E6
:1055B00075652E63000000004572726F723A2573A4
:1055C0002C25640D0A00000004ED00E02DE9FF43E6
:1055D00083B0064688461D464FF0000934462CB974
:1055E00040F2D92258A15EA0FDF7ACFDB8F1000F42
:1055F00001D1206C08B9012000E0002028B940F258
:10560000DA2251A156A0FDF79DFD022D02D1E06BDB
:10561000012801D1012000E0002028B940F2DB225E
:1056200049A14FA0FDF78EFD00F0A8F908B9059833
:1056300008B9012000E0002028B940F2DE2242A192
:1056400047A0FDF77FFD00BFFFF702F9A06BE16BFC
:10565000884201D3022D28D12A4641462046FEF732
:10566000B8FA0746606A08B9012000E0002068B96E
:1056700004F1240000F0C2FA88B14FF080503C4998
:105680000860BFF34F8FBFF36F8F08E03FB14FF05B
:10569000805037490860BFF34F8FBFF36F8FFFF71C
:1056A00017F9012007B0BDE8F083059818B9FFF796
:1056B0000FF90020F6E7B9F1000F04D101A8FFF7B8
:1056C00061FB4FF00109FFF703F9FFF7DBFBFFF781
:1056D000BFF894F94400401C10B9002084F844003D
:1056E00094F94500401C10B9002084F84500FFF7EC
:1056F000EFF805A901A800F0BFF8F0B92046FEF7C1
:1057000072FCA0B104F110000599FFF747FA20469A
:10571000FEF756FE00F030FB002895D14FF0805088
:1057200013490860BFF34F8FBFF36F8F8CE720469C
:10573000FEF746FE00F020FB86E72046FEF740FE1F
:1057400000F01AFB0020ADE74672656552544F53D6
:105750005C7372635C71756575652E630000000093
:105760004572726F723A25732C25640D0A00000091
:1057700004ED00E02DE9F05F07468A4690461E469C
:105780003C462CB940F29F3231A137A0FDF7DAFC3C
:10579000BAF1000F01D1206C08B9012000E000200F
:1057A00028B94FF468722AA12FA0FDF7CBFC022E76
:1057B00002D1E06B012801D1012000E0002028B9CE
:1057C00040F2A13222A128A0FDF7BCFCFFF71CF992
:1057D00000BF5021EFF3118081F31188BFF34F8F89
:1057E000BFF36F8F00BF0546A06BE16B884201D30A
:1057F000022E23D194F945B0324651462046FEF799
:10580000E8F90BF1010088B9606A08B9012000E0ED
:10581000002080B904F1240000F0F0F958B1B8F18B
:10582000000F08D00120C8F8000004E00BF10100CF
:1058300040B284F845004FF0010901E04FF0000943
:1058400000BF85F3118800BF4846BDE8F09F000007
:105850004672656552544F535C7372635C71756533
:1058600075652E63000000004572726F723A2573F1
:105870002C25640D0A0000002DE9F04104460D4678
:105880002CB940F6CB3219A11EA0FDF75BFC2DB957
:1058900040F6CC3215A11BA0FDF754FCFEF7D8FF53
:1058A0001C4807682868401C08B9002619E01A49F6
:1058B00020680968884204D06068B84201D801268F
:1058C0000FE06068381A2968884209D22868616840
:1058D000791A401A28602046FFF754FA002600E0A3
:1058E0000126FEF7F5FF3046BDE8F081467265659A
:1058F00052544F535C7372635C7461736B732E63A9
:10590000000000004572726F723A25732C25640DF9
:105910000A00000060000020740000202DE9FF4F05
:1059200085B0804689461746DDE912ABB800FEF720
:1059300087FD064656B15420FEF782FD04460CB1A1
:10594000266304E03046FEF7F7FF00E000247CB158
:105950000020CDE900ABCDE902403A464946404639
:10596000089BFEF705FA2046FEF760F8012501E0E6
:105970004FF0FF35284609B0BDE8F08F05490968AA
:1059800009B9012005E00449096809B9022000E0CD
:10599000002070476800002084000020014908684A
:1059A000704700006000002070B5FFF72DF800255B
:1059B00001480468204670BD600000202DE9F041D8
:1059C0004FF0000841480068002872D14048006844
:1059D000451C3F480560EDB93E480068006808B9BD
:1059E000012000E0002028B940F6D9123AA140A0D9
:1059F000FDF7A8FB3748076841480068354908604B
:105A00003F4807603F480068401C3E490860FEF779
:105A1000F9FB00BF3C48006885423CD300BF2D48DD
:105A20000068006808B9012000E0002020B14FF0B4
:105A3000FF30354908602DE026480068C068C4681A
:105A40006668B54202D23048066023E0201DFEF7AA
:105A5000A7FEA06A18B104F11800FEF7A1FE94F8A1
:105A60002C1001208840294909680843274908600B
:105A7000E16A01EB8101264A02EB8100211DFEF75C
:105A8000DBFE2449E06A0968C96A8842C7D34FF03F
:105A90000108C4E700BF1F480068C06A00EB80002F
:105AA0001B4951F82000012801D94FF0010805E0F9
:105AB000FFE719480068401C17490860174800684C
:105AC00008B14FF001084046BDE8F0818400002095
:105AD00060000020500000204672656552544F530C
